{
  "_format": "hh-sol-artifact-1",
  "contractName": "Transactions",
  "sourceName": "contracts/Transactions.sol",
  "abi": [
    {
      "inputs": [
        {
          "internalType": "string[]",
          "name": "candidateNames",
          "type": "string[]"
        }
      ],
      "stateMutability": "nonpayable",
      "type": "constructor"
    },
    {
      "inputs": [
        {
          "internalType": "bytes32",
          "name": "_bytes32",
          "type": "bytes32"
        }
      ],
      "name": "bytes32ToString",
      "outputs": [
        {
          "internalType": "string",
          "name": "",
          "type": "string"
        }
      ],
      "stateMutability": "pure",
      "type": "function"
    },
    {
      "inputs": [
        {
          "internalType": "uint256",
          "name": "",
          "type": "uint256"
        }
      ],
      "name": "candidateList",
      "outputs": [
        {
          "internalType": "bytes32",
          "name": "",
          "type": "bytes32"
        }
      ],
      "stateMutability": "view",
      "type": "function"
    },
    {
      "inputs": [],
      "name": "getCandidateList",
      "outputs": [
        {
          "internalType": "string[]",
          "name": "",
          "type": "string[]"
        }
      ],
      "stateMutability": "view",
      "type": "function"
    },
    {
      "inputs": [],
      "name": "getTransactionCount",
      "outputs": [
        {
          "internalType": "uint256",
          "name": "",
          "type": "uint256"
        }
      ],
      "stateMutability": "view",
      "type": "function"
    },
    {
      "inputs": [
        {
          "internalType": "string",
          "name": "candidateName",
          "type": "string"
        }
      ],
      "name": "totalVotesFor",
      "outputs": [
        {
          "internalType": "uint256",
          "name": "",
          "type": "uint256"
        }
      ],
      "stateMutability": "view",
      "type": "function"
    },
    {
      "inputs": [
        {
          "internalType": "bytes32",
          "name": "candidate",
          "type": "bytes32"
        }
      ],
      "name": "validCandidate",
      "outputs": [
        {
          "internalType": "bool",
          "name": "",
          "type": "bool"
        }
      ],
      "stateMutability": "view",
      "type": "function"
    },
    {
      "inputs": [
        {
          "internalType": "string",
          "name": "candidateName",
          "type": "string"
        }
      ],
      "name": "voteForCandidate",
      "outputs": [],
      "stateMutability": "nonpayable",
      "type": "function"
    },
    {
      "inputs": [
        {
          "internalType": "bytes32",
          "name": "",
          "type": "bytes32"
        }
      ],
      "name": "votesReceived",
      "outputs": [
        {
          "internalType": "uint256",
          "name": "",
          "type": "uint256"
        }
      ],
      "stateMutability": "view",
      "type": "function"
    }
  ],
  "bytecode": "0x60806040523480156200001157600080fd5b506040516200116838038062001168833981810160405281019062000037919062000212565b60005b8151811015620000da5760006200009883838151811062000084577f4e487b7100000000000000000000000000000000000000000000000000000000600052603260045260246000fd5b6020026020010151620000e260201b60201c565b90506001819080600181540180825580915050600190039060005260206000200160009091909190915055508080620000d1906200032d565b9150506200003a565b5050620003d9565b60008082905060008151141562000100576000801b91505062000109565b60208301519150505b919050565b6000620001256200011f846200028b565b62000257565b9050808382526020820190508260005b858110156200016957815185016200014e8882620001e5565b84526020840193506020830192505060018101905062000135565b5050509392505050565b60006200018a6200018484620002ba565b62000257565b905082815260208101848484011115620001a357600080fd5b620001b0848285620002f7565b509392505050565b600082601f830112620001ca57600080fd5b8151620001dc8482602086016200010e565b91505092915050565b600082601f830112620001f757600080fd5b81516200020984826020860162000173565b91505092915050565b6000602082840312156200022557600080fd5b600082015167ffffffffffffffff8111156200024057600080fd5b6200024e84828501620001b8565b91505092915050565b6000604051905081810181811067ffffffffffffffff82111715620002815762000280620003aa565b5b8060405250919050565b600067ffffffffffffffff821115620002a957620002a8620003aa565b5b602082029050602081019050919050565b600067ffffffffffffffff821115620002d857620002d7620003aa565b5b601f19601f8301169050602081019050919050565b6000819050919050565b60005b8381101562000317578082015181840152602081019050620002fa565b8381111562000327576000848401525b50505050565b60006200033a82620002ed565b91507fffffffffffffffffffffffffffffffffffffffffffffffffffffffffffffffff82141562000370576200036f6200037b565b5b600182019050919050565b7f4e487b7100000000000000000000000000000000000000000000000000000000600052601160045260246000fd5b7f4e487b7100000000000000000000000000000000000000000000000000000000600052604160045260246000fd5b610d7f80620003e96000396000f3fe608060405234801561001057600080fd5b50600436106100885760003560e01c80639201de551161005b5780639201de551461013b578063b13c744b1461016b578063e89927ef1461019b578063fdbc4006146101b757610088565b80632e7700f01461008d578063392e6678146100ab5780634a3bf377146100db5780637021939f1461010b575b600080fd5b6100956101d5565b6040516100a29190610a92565b60405180910390f35b6100c560048036038101906100c091906107fd565b6101df565b6040516100d29190610a1a565b60405180910390f35b6100f560048036038101906100f09190610826565b610268565b6040516101029190610a92565b60405180910390f35b610125600480360381019061012091906107fd565b6102d9565b6040516101329190610a92565b60405180910390f35b610155600480360381019061015091906107fd565b6102f1565b6040516101629190610a50565b60405180910390f35b61018560048036038101906101809190610867565b61054a565b6040516101929190610a35565b60405180910390f35b6101b560048036038101906101b09190610826565b61056e565b005b6101bf610606565b6040516101cc91906109f8565b60405180910390f35b6000600254905090565b600080600090505b60018054905081101561025d57826001828154811061022f577f4e487b7100000000000000000000000000000000000000000000000000000000600052603260045260246000fd5b9060005260206000200154141561024a576001915050610263565b808061025590610c39565b9150506101e7565b50600090505b919050565b60008061027483610741565b905061027f816101df565b6102be576040517f08c379a00000000000000000000000000000000000000000000000000000000081526004016102b590610a72565b60405180910390fd5b60008082815260200190815260200160002054915050919050565b60006020528060005260406000206000915090505481565b606060005b60208160ff1610801561036e5750600060f81b838260ff1660208110610345577f4e487b7100000000000000000000000000000000000000000000000000000000600052603260045260246000fd5b1a60f81b7effffffffffffffffffffffffffffffffffffffffffffffffffffffffffffff191614155b1561038657808061037e90610c82565b9150506102f6565b60008160ff1667ffffffffffffffff8111156103cb577f4e487b7100000000000000000000000000000000000000000000000000000000600052604160045260246000fd5b6040519080825280601f01601f1916602001820160405280156103fd5781602001600182028036833780820191505090505b509050600091505b60208260ff1610801561047d5750600060f81b848360ff1660208110610454577f4e487b7100000000000000000000000000000000000000000000000000000000600052603260045260246000fd5b1a60f81b7effffffffffffffffffffffffffffffffffffffffffffffffffffffffffffff191614155b1561054057838260ff16602081106104be577f4e487b7100000000000000000000000000000000000000000000000000000000600052603260045260246000fd5b1a60f81b818360ff16815181106104fe577f4e487b7100000000000000000000000000000000000000000000000000000000600052603260045260246000fd5b60200101907effffffffffffffffffffffffffffffffffffffffffffffffffffffffffffff1916908160001a905350818061053890610c82565b925050610405565b8092505050919050565b6001818154811061055a57600080fd5b906000526020600020016000915090505481565b600160025461057d9190610b74565b600281905550600061058e82610741565b9050610599816101df565b6105d8576040517f08c379a00000000000000000000000000000000000000000000000000000000081526004016105cf90610a72565b60405180910390fd5b600160008083815260200190815260200160002060008282546105fb9190610b74565b925050819055505050565b6060600060018054905067ffffffffffffffff81111561064f577f4e487b7100000000000000000000000000000000000000000000000000000000600052604160045260246000fd5b60405190808252806020026020018201604052801561068257816020015b606081526020019060019003908161066d5790505b50905060005b600180549050811015610739576106e2600182815481106106d2577f4e487b7100000000000000000000000000000000000000000000000000000000600052603260045260246000fd5b90600052602060002001546102f1565b82828151811061071b577f4e487b7100000000000000000000000000000000000000000000000000000000600052603260045260246000fd5b6020026020010181905250808061073190610c39565b915050610688565b508091505090565b60008082905060008151141561075d576000801b915050610766565b60208301519150505b919050565b600061077e61077984610ade565b610aad565b90508281526020810184848401111561079657600080fd5b6107a1848285610bf7565b509392505050565b6000813590506107b881610d1b565b92915050565b600082601f8301126107cf57600080fd5b81356107df84826020860161076b565b91505092915050565b6000813590506107f781610d32565b92915050565b60006020828403121561080f57600080fd5b600061081d848285016107a9565b91505092915050565b60006020828403121561083857600080fd5b600082013567ffffffffffffffff81111561085257600080fd5b61085e848285016107be565b91505092915050565b60006020828403121561087957600080fd5b6000610887848285016107e8565b91505092915050565b600061089c8383610937565b905092915050565b60006108af82610b1e565b6108b98185610b41565b9350836020820285016108cb85610b0e565b8060005b8581101561090757848403895281516108e88582610890565b94506108f383610b34565b925060208a019950506001810190506108cf565b50829750879550505050505092915050565b61092281610bca565b82525050565b61093181610bd6565b82525050565b600061094282610b29565b61094c8185610b52565b935061095c818560208601610c06565b61096581610d0a565b840191505092915050565b600061097b82610b29565b6109858185610b63565b9350610995818560208601610c06565b61099e81610d0a565b840191505092915050565b60006109b6601183610b63565b91507f496e76616c69642063616e6469646174650000000000000000000000000000006000830152602082019050919050565b6109f281610be0565b82525050565b60006020820190508181036000830152610a1281846108a4565b905092915050565b6000602082019050610a2f6000830184610919565b92915050565b6000602082019050610a4a6000830184610928565b92915050565b60006020820190508181036000830152610a6a8184610970565b905092915050565b60006020820190508181036000830152610a8b816109a9565b9050919050565b6000602082019050610aa760008301846109e9565b92915050565b6000604051905081810181811067ffffffffffffffff82111715610ad457610ad3610cdb565b5b8060405250919050565b600067ffffffffffffffff821115610af957610af8610cdb565b5b601f19601f8301169050602081019050919050565b6000819050602082019050919050565b600081519050919050565b600081519050919050565b6000602082019050919050565b600082825260208201905092915050565b600082825260208201905092915050565b600082825260208201905092915050565b6000610b7f82610be0565b9150610b8a83610be0565b9250827fffffffffffffffffffffffffffffffffffffffffffffffffffffffffffffffff03821115610bbf57610bbe610cac565b5b828201905092915050565b60008115159050919050565b6000819050919050565b6000819050919050565b600060ff82169050919050565b82818337600083830152505050565b60005b83811015610c24578082015181840152602081019050610c09565b83811115610c33576000848401525b50505050565b6000610c4482610be0565b91507fffffffffffffffffffffffffffffffffffffffffffffffffffffffffffffffff821415610c7757610c76610cac565b5b600182019050919050565b6000610c8d82610bea565b915060ff821415610ca157610ca0610cac565b5b600182019050919050565b7f4e487b7100000000000000000000000000000000000000000000000000000000600052601160045260246000fd5b7f4e487b7100000000000000000000000000000000000000000000000000000000600052604160045260246000fd5b6000601f19601f8301169050919050565b610d2481610bd6565b8114610d2f57600080fd5b50565b610d3b81610be0565b8114610d4657600080fd5b5056fea2646970667358221220153908f7488254489fc7a6ec05110b1736774ea484b898541182f3904be8807464736f6c63430008000033",
  "linkReferences": {},
  "deployedLinkReferences": {}
}